{
  "contractName": "ToDo",
  "abi": [
    {
      "constant": true,
      "inputs": [
        {
          "name": "",
          "type": "address"
        },
        {
          "name": "",
          "type": "uint256"
        }
      ],
      "name": "items",
      "outputs": [
        {
          "name": "",
          "type": "bytes32"
        }
      ],
      "payable": false,
      "stateMutability": "view",
      "type": "function"
    },
    {
      "anonymous": false,
      "inputs": [
        {
          "indexed": true,
          "name": "_address",
          "type": "address"
        },
        {
          "indexed": false,
          "name": "_item",
          "type": "bytes32"
        }
      ],
      "name": "ItemCreated",
      "type": "event"
    },
    {
      "anonymous": false,
      "inputs": [
        {
          "indexed": true,
          "name": "_address",
          "type": "address"
        },
        {
          "indexed": false,
          "name": "_item",
          "type": "bytes32"
        }
      ],
      "name": "ItemUpdated",
      "type": "event"
    },
    {
      "anonymous": false,
      "inputs": [
        {
          "indexed": true,
          "name": "_address",
          "type": "address"
        },
        {
          "indexed": false,
          "name": "_id",
          "type": "uint256"
        }
      ],
      "name": "ItemDeleted",
      "type": "event"
    },
    {
      "constant": false,
      "inputs": [
        {
          "name": "_item",
          "type": "bytes32"
        }
      ],
      "name": "create",
      "outputs": [],
      "payable": false,
      "stateMutability": "nonpayable",
      "type": "function"
    },
    {
      "constant": true,
      "inputs": [],
      "name": "getAll",
      "outputs": [
        {
          "name": "",
          "type": "bytes32[]"
        }
      ],
      "payable": false,
      "stateMutability": "view",
      "type": "function"
    },
    {
      "constant": true,
      "inputs": [
        {
          "name": "id",
          "type": "uint256"
        }
      ],
      "name": "get",
      "outputs": [
        {
          "name": "",
          "type": "bytes32"
        }
      ],
      "payable": false,
      "stateMutability": "view",
      "type": "function"
    },
    {
      "constant": false,
      "inputs": [
        {
          "name": "id",
          "type": "uint256"
        },
        {
          "name": "_item",
          "type": "bytes32"
        }
      ],
      "name": "update",
      "outputs": [],
      "payable": false,
      "stateMutability": "nonpayable",
      "type": "function"
    },
    {
      "constant": false,
      "inputs": [
        {
          "name": "id",
          "type": "uint256"
        }
      ],
      "name": "destroy",
      "outputs": [],
      "payable": false,
      "stateMutability": "nonpayable",
      "type": "function"
    }
  ],
  "bytecode": "0x6060604052341561000f57600080fd5b6107528061001e6000396000f300606060405260043610610078576000357c0100000000000000000000000000000000000000000000000000000000900463ffffffff16806353ed51431461007d5780635c80a435146100e75780637368a8ce146101455780639507d39a1461016c5780639d118770146101ab578063d3b7576c146101ce575b600080fd5b341561008857600080fd5b6100906101fe565b6040518080602001828103825283818151815260200191508051906020019060200280838360005b838110156100d35780820151818401526020810190506100b8565b505050509050019250505060405180910390f35b34156100f257600080fd5b610127600480803573ffffffffffffffffffffffffffffffffffffffff1690602001909190803590602001909190505061029c565b60405180826000191660001916815260200191505060405180910390f35b341561015057600080fd5b61016a6004808035600019169060200190919050506102cd565b005b341561017757600080fd5b61018d6004808035906020019091905050610391565b60405180826000191660001916815260200191505060405180910390f35b34156101b657600080fd5b6101cc60048080359060200190919050506103f1565b005b34156101d957600080fd5b6101fc6004808035906020019091908035600019169060200190919050506105dc565b005b610206610695565b6000803373ffffffffffffffffffffffffffffffffffffffff1673ffffffffffffffffffffffffffffffffffffffff16815260200190815260200160002080548060200260200160405190810160405280929190818152602001828054801561029257602002820191906000526020600020905b8154600019168152602001906001019080831161027a575b5050505050905090565b6000602052816000526040600020818154811015156102b757fe5b9060005260206000209001600091509150505481565b6000803373ffffffffffffffffffffffffffffffffffffffff1673ffffffffffffffffffffffffffffffffffffffff168152602001908152602001600020805480600101828161031d91906106a9565b9160005260206000209001600083909190915090600019169055503373ffffffffffffffffffffffffffffffffffffffff167f9a3de7b00f18050a91190447213bbb5c80ace18177398bbbae3e99fdba1817448260405180826000191660001916815260200191505060405180910390a250565b60008060003373ffffffffffffffffffffffffffffffffffffffff1673ffffffffffffffffffffffffffffffffffffffff168152602001908152602001600020828154811015156103de57fe5b9060005260206000209001549050919050565b806000803373ffffffffffffffffffffffffffffffffffffffff1673ffffffffffffffffffffffffffffffffffffffff1681526020019081526020016000208054905011151561044057600080fd5b6000803373ffffffffffffffffffffffffffffffffffffffff1673ffffffffffffffffffffffffffffffffffffffff16815260200190815260200160002060016000803373ffffffffffffffffffffffffffffffffffffffff1673ffffffffffffffffffffffffffffffffffffffff16815260200190815260200160002080549050038154811015156104cf57fe5b9060005260206000209001546000803373ffffffffffffffffffffffffffffffffffffffff1673ffffffffffffffffffffffffffffffffffffffff1681526020019081526020016000208281548110151561052657fe5b906000526020600020900181600019169055506000803373ffffffffffffffffffffffffffffffffffffffff1673ffffffffffffffffffffffffffffffffffffffff16815260200190815260200160002080548091906001900361058a91906106d5565b503373ffffffffffffffffffffffffffffffffffffffff167f21c5ff13f7a7163d7cd6a98d82517de93dcc833b527ad63a5550894be16070c8826040518082815260200191505060405180910390a250565b806000803373ffffffffffffffffffffffffffffffffffffffff1673ffffffffffffffffffffffffffffffffffffffff1681526020019081526020016000208381548110151561062857fe5b906000526020600020900181600019169055503373ffffffffffffffffffffffffffffffffffffffff167f2c1a74d6c06b5fc4cba70d4b25a8568fb3c73c383063d04ad0ed4ad0ecb2fb4b8260405180826000191660001916815260200191505060405180910390a25050565b602060405190810160405280600081525090565b8154818355818115116106d0578183600052602060002091820191016106cf9190610701565b5b505050565b8154818355818115116106fc578183600052602060002091820191016106fb9190610701565b5b505050565b61072391905b8082111561071f576000816000905550600101610707565b5090565b905600a165627a7a723058205765ec0f5a230e4baf0f688eb99b30a01239e630a0ff3a27de6009179f4b09c40029",
  "source": "pragma solidity 0.4.21;\r\n\r\ncontract ToDo {\r\n\r\n    mapping(address => bytes32[]) public items;\r\n\r\n    event ItemCreated(address indexed _address, bytes32 _item);\r\n    event ItemUpdated(address indexed _address, bytes32 _item);\r\n    event ItemDeleted(address indexed _address, uint _id);\r\n\r\n    function create (bytes32 _item) public {\r\n        items[msg.sender].push(_item);\r\n        emit ItemCreated(msg.sender, _item);\r\n    }\r\n\r\n    function getAll () public constant returns (bytes32[]) {\r\n        return items[msg.sender];\r\n    }\r\n\r\n    function get (uint id) public constant returns(bytes32) {\r\n        return items[msg.sender][id];\r\n    }\r\n\r\n    function update (uint id, bytes32 _item) public {\r\n        items[msg.sender][id] = _item;\r\n        emit ItemUpdated(msg.sender, _item);\r\n    }\r\n\r\n    function destroy (uint id) public {\r\n        require(items[msg.sender].length > id);\r\n        items[msg.sender][id] = items[msg.sender][items[msg.sender].length - 1];\r\n        items[msg.sender].length--;\r\n        emit ItemDeleted(msg.sender, id);\r\n    }\r\n\r\n}\r\n",
  "sourcePath": "D:\\Projects\\Repos\\solidity\\truffle-demo\\contracts\\ToDo.sol",
  "compiler": {
    "name": "solc",
    "version": "0.4.21+commit.dfe3193c.Emscripten.clang"
  },
  "schemaVersion": "2.0.0",
  "updatedAt": "2018-04-13T15:03:39.917Z"
}